{
  "contractName": "Dex",
  "abi": [
    {
      "inputs": [],
      "stateMutability": "nonpayable",
      "type": "constructor"
    },
    {
      "anonymous": false,
      "inputs": [
        {
          "indexed": false,
          "internalType": "uint256",
          "name": "tradeId",
          "type": "uint256"
        },
        {
          "indexed": false,
          "internalType": "uint256",
          "name": "orderId",
          "type": "uint256"
        },
        {
          "indexed": true,
          "internalType": "bytes32",
          "name": "ticker",
          "type": "bytes32"
        },
        {
          "indexed": true,
          "internalType": "address",
          "name": "trader1",
          "type": "address"
        },
        {
          "indexed": true,
          "internalType": "address",
          "name": "trader2",
          "type": "address"
        },
        {
          "indexed": false,
          "internalType": "uint256",
          "name": "amount",
          "type": "uint256"
        },
        {
          "indexed": false,
          "internalType": "uint256",
          "name": "price",
          "type": "uint256"
        },
        {
          "indexed": false,
          "internalType": "uint256",
          "name": "date",
          "type": "uint256"
        }
      ],
      "name": "NewTrade",
      "type": "event"
    },
    {
      "inputs": [],
      "name": "admin",
      "outputs": [
        {
          "internalType": "address",
          "name": "",
          "type": "address"
        }
      ],
      "stateMutability": "view",
      "type": "function",
      "constant": true
    },
    {
      "inputs": [],
      "name": "nextOrderId",
      "outputs": [
        {
          "internalType": "uint256",
          "name": "",
          "type": "uint256"
        }
      ],
      "stateMutability": "view",
      "type": "function",
      "constant": true
    },
    {
      "inputs": [],
      "name": "nextTradeId",
      "outputs": [
        {
          "internalType": "uint256",
          "name": "",
          "type": "uint256"
        }
      ],
      "stateMutability": "view",
      "type": "function",
      "constant": true
    },
    {
      "inputs": [
        {
          "internalType": "bytes32",
          "name": "",
          "type": "bytes32"
        },
        {
          "internalType": "uint256",
          "name": "",
          "type": "uint256"
        },
        {
          "internalType": "uint256",
          "name": "",
          "type": "uint256"
        }
      ],
      "name": "orderBook",
      "outputs": [
        {
          "internalType": "uint256",
          "name": "id",
          "type": "uint256"
        },
        {
          "internalType": "address",
          "name": "trader",
          "type": "address"
        },
        {
          "internalType": "enum Dex.Side",
          "name": "side",
          "type": "uint8"
        },
        {
          "internalType": "bytes32",
          "name": "ticker",
          "type": "bytes32"
        },
        {
          "internalType": "uint256",
          "name": "amount",
          "type": "uint256"
        },
        {
          "internalType": "uint256",
          "name": "filled",
          "type": "uint256"
        },
        {
          "internalType": "uint256",
          "name": "price",
          "type": "uint256"
        },
        {
          "internalType": "uint256",
          "name": "date",
          "type": "uint256"
        }
      ],
      "stateMutability": "view",
      "type": "function",
      "constant": true
    },
    {
      "inputs": [
        {
          "internalType": "uint256",
          "name": "",
          "type": "uint256"
        }
      ],
      "name": "tokenList",
      "outputs": [
        {
          "internalType": "bytes32",
          "name": "",
          "type": "bytes32"
        }
      ],
      "stateMutability": "view",
      "type": "function",
      "constant": true
    },
    {
      "inputs": [
        {
          "internalType": "bytes32",
          "name": "",
          "type": "bytes32"
        }
      ],
      "name": "tokens",
      "outputs": [
        {
          "internalType": "bytes32",
          "name": "ticker",
          "type": "bytes32"
        },
        {
          "internalType": "address",
          "name": "tokenAddress",
          "type": "address"
        }
      ],
      "stateMutability": "view",
      "type": "function",
      "constant": true
    },
    {
      "inputs": [
        {
          "internalType": "address",
          "name": "",
          "type": "address"
        },
        {
          "internalType": "bytes32",
          "name": "",
          "type": "bytes32"
        }
      ],
      "name": "traderBalances",
      "outputs": [
        {
          "internalType": "uint256",
          "name": "",
          "type": "uint256"
        }
      ],
      "stateMutability": "view",
      "type": "function",
      "constant": true
    },
    {
      "inputs": [
        {
          "internalType": "bytes32",
          "name": "ticker",
          "type": "bytes32"
        },
        {
          "internalType": "enum Dex.Side",
          "name": "side",
          "type": "uint8"
        }
      ],
      "name": "getOrders",
      "outputs": [
        {
          "components": [
            {
              "internalType": "uint256",
              "name": "id",
              "type": "uint256"
            },
            {
              "internalType": "address",
              "name": "trader",
              "type": "address"
            },
            {
              "internalType": "enum Dex.Side",
              "name": "side",
              "type": "uint8"
            },
            {
              "internalType": "bytes32",
              "name": "ticker",
              "type": "bytes32"
            },
            {
              "internalType": "uint256",
              "name": "amount",
              "type": "uint256"
            },
            {
              "internalType": "uint256",
              "name": "filled",
              "type": "uint256"
            },
            {
              "internalType": "uint256",
              "name": "price",
              "type": "uint256"
            },
            {
              "internalType": "uint256",
              "name": "date",
              "type": "uint256"
            }
          ],
          "internalType": "struct Dex.Order[]",
          "name": "",
          "type": "tuple[]"
        }
      ],
      "stateMutability": "view",
      "type": "function",
      "constant": true
    },
    {
      "inputs": [],
      "name": "getTokens",
      "outputs": [
        {
          "components": [
            {
              "internalType": "bytes32",
              "name": "ticker",
              "type": "bytes32"
            },
            {
              "internalType": "address",
              "name": "tokenAddress",
              "type": "address"
            }
          ],
          "internalType": "struct Dex.Token[]",
          "name": "",
          "type": "tuple[]"
        }
      ],
      "stateMutability": "view",
      "type": "function",
      "constant": true
    },
    {
      "inputs": [
        {
          "internalType": "bytes32",
          "name": "ticker",
          "type": "bytes32"
        },
        {
          "internalType": "address",
          "name": "tokenAddress",
          "type": "address"
        }
      ],
      "name": "addToken",
      "outputs": [],
      "stateMutability": "nonpayable",
      "type": "function"
    },
    {
      "inputs": [
        {
          "internalType": "uint256",
          "name": "amount",
          "type": "uint256"
        },
        {
          "internalType": "bytes32",
          "name": "ticker",
          "type": "bytes32"
        }
      ],
      "name": "deposit",
      "outputs": [],
      "stateMutability": "nonpayable",
      "type": "function"
    },
    {
      "inputs": [
        {
          "internalType": "uint256",
          "name": "amount",
          "type": "uint256"
        },
        {
          "internalType": "bytes32",
          "name": "ticker",
          "type": "bytes32"
        }
      ],
      "name": "withdraw",
      "outputs": [],
      "stateMutability": "nonpayable",
      "type": "function"
    },
    {
      "inputs": [
        {
          "internalType": "bytes32",
          "name": "ticker",
          "type": "bytes32"
        },
        {
          "internalType": "uint256",
          "name": "amount",
          "type": "uint256"
        },
        {
          "internalType": "uint256",
          "name": "price",
          "type": "uint256"
        },
        {
          "internalType": "enum Dex.Side",
          "name": "side",
          "type": "uint8"
        }
      ],
      "name": "createLimitOrder",
      "outputs": [],
      "stateMutability": "nonpayable",
      "type": "function"
    },
    {
      "inputs": [
        {
          "internalType": "bytes32",
          "name": "ticker",
          "type": "bytes32"
        },
        {
          "internalType": "uint256",
          "name": "amount",
          "type": "uint256"
        },
        {
          "internalType": "enum Dex.Side",
          "name": "side",
          "type": "uint8"
        }
      ],
      "name": "createMarketOrder",
      "outputs": [],
      "stateMutability": "nonpayable",
      "type": "function"
    }
  ],
  "bytecode": "0x608060405234801561001057600080fd5b5033600460006101000a81548173ffffffffffffffffffffffffffffffffffffffff021916908373ffffffffffffffffffffffffffffffffffffffff160217905550613d89806100616000396000f3fe608060405234801561001057600080fd5b50600436106100ea5760003560e01c80639776aacf1161008c578063aa6ca80811610066578063aa6ca80814610277578063c9630cb014610295578063d9c0c950146102b1578063f851a440146102cd576100ea565b80639776aacf1461020f5780639ead72221461022b578063a8d2021a1461025b576100ea565b806372ce957e116100c857806372ce957e146101745780637f2c6246146101a4578063813ad083146101c0578063904194a3146101de576100ea565b80630bb431b6146100ef5780632a58b3301461012657806346e9658b14610144575b600080fd5b610109600480360381019061010491906131e8565b6102eb565b60405161011d989796959493929190613953565b60405180910390f35b61012e61038a565b60405161013b9190613938565b60405180910390f35b61015e6004803603810190610159919061315d565b610390565b60405161016b91906137b0565b60405180910390f35b61018e60048036038101906101899190613093565b610566565b60405161019b9190613938565b60405180910390f35b6101be60048036038101906101b99190613199565b61058b565b005b6101c8611c20565b6040516101d59190613938565b60405180910390f35b6101f860048036038101906101f391906130f8565b611c26565b60405161020692919061380f565b60405180910390f35b61022960048036038101906102249190613121565b611c6a565b005b6102456004803603810190610240919061329a565b611db8565b60405161025291906137f4565b60405180910390f35b610275600480360381019061027091906132c3565b611ddc565b005b61027f612044565b60405161028c91906137d2565b60405180910390f35b6102af60048036038101906102aa91906132c3565b612235565b005b6102cb60048036038101906102c69190613237565b61240c565b005b6102d5612fd1565b6040516102e29190613735565b60405180910390f35b6003602052826000526040600020602052816000526040600020818154811061031357600080fd5b906000526020600020906007020160009250925050508060000154908060010160009054906101000a900473ffffffffffffffffffffffffffffffffffffffff16908060010160149054906101000a900460ff16908060020154908060030154908060040154908060050154908060060154905088565b60055481565b60606003600084815260200190815260200160002060008360018111156103e0577f4e487b7100000000000000000000000000000000000000000000000000000000600052602160045260246000fd5b8152602001908152602001600020805480602002602001604051908101604052809291908181526020016000905b8282101561055a578382906000526020600020906007020160405180610100016040529081600082015481526020016001820160009054906101000a900473ffffffffffffffffffffffffffffffffffffffff1673ffffffffffffffffffffffffffffffffffffffff1673ffffffffffffffffffffffffffffffffffffffff1681526020016001820160149054906101000a900460ff1660018111156104dd577f4e487b7100000000000000000000000000000000000000000000000000000000600052602160045260246000fd5b6001811115610515577f4e487b7100000000000000000000000000000000000000000000000000000000600052602160045260246000fd5b8152602001600282015481526020016003820154815260200160048201548152602001600582015481526020016006820154815250508152602001906001019061040e565b50505050905092915050565b6002602052816000526040600020602052806000526040600020600091509150505481565b82600073ffffffffffffffffffffffffffffffffffffffff1660008083815260200190815260200160002060010160009054906101000a900473ffffffffffffffffffffffffffffffffffffffff1673ffffffffffffffffffffffffffffffffffffffff161415610631576040517f08c379a000000000000000000000000000000000000000000000000000000000815260040161062890613918565b60405180910390fd5b837f4441490000000000000000000000000000000000000000000000000000000000811415610695576040517f08c379a000000000000000000000000000000000000000000000000000000000815260040161068c90613878565b60405180910390fd5b6001808111156106ce577f4e487b7100000000000000000000000000000000000000000000000000000000600052602160045260246000fd5b836001811115610707577f4e487b7100000000000000000000000000000000000000000000000000000000600052602160045260246000fd5b14156107a15783600260003373ffffffffffffffffffffffffffffffffffffffff1673ffffffffffffffffffffffffffffffffffffffff16815260200190815260200160002060008781526020019081526020016000205410156107a0576040517f08c379a0000000000000000000000000000000000000000000000000000000008152600401610797906138b8565b60405180910390fd5b5b60006003600087815260200190815260200160002060008060018111156107f1577f4e487b7100000000000000000000000000000000000000000000000000000000600052602160045260246000fd5b86600181111561082a577f4e487b7100000000000000000000000000000000000000000000000000000000600052602160045260246000fd5b14610836576000610839565b60015b6001811115610871577f4e487b7100000000000000000000000000000000000000000000000000000000600052602160045260246000fd5b815260200190815260200160002090506000808690505b82805490508210801561089b5750600081115b156118c35760008383815481106108db577f4e487b7100000000000000000000000000000000000000000000000000000000600052603260045260246000fd5b906000526020600020906007020160040154848481548110610926577f4e487b7100000000000000000000000000000000000000000000000000000000600052603260045260246000fd5b9060005260206000209060070201600301546109429190613b57565b905060008183116109535782610955565b815b905080836109639190613b57565b92508085858154811061099f577f4e487b7100000000000000000000000000000000000000000000000000000000600052603260045260246000fd5b9060005260206000209060070201600401546109bb9190613aa7565b8585815481106109f4577f4e487b7100000000000000000000000000000000000000000000000000000000600052603260045260246000fd5b9060005260206000209060070201600401819055503373ffffffffffffffffffffffffffffffffffffffff16858581548110610a59577f4e487b7100000000000000000000000000000000000000000000000000000000600052603260045260246000fd5b906000526020600020906007020160010160009054906101000a900473ffffffffffffffffffffffffffffffffffffffff1673ffffffffffffffffffffffffffffffffffffffff168b7fdb0c486e680ba8026643e6a85f8d157b5e7bcd4b32b54d564542570a9eb20416600654898981548110610aff577f4e487b7100000000000000000000000000000000000000000000000000000000600052603260045260246000fd5b906000526020600020906007020160000154868b8b81548110610b4b577f4e487b7100000000000000000000000000000000000000000000000000000000600052603260045260246000fd5b90600052602060002090600702016005015442604051610b6f9594939291906139d1565b60405180910390a4600180811115610bb0577f4e487b7100000000000000000000000000000000000000000000000000000000600052602160045260246000fd5b886001811115610be9577f4e487b7100000000000000000000000000000000000000000000000000000000600052602160045260246000fd5b14156111825780600260003373ffffffffffffffffffffffffffffffffffffffff1673ffffffffffffffffffffffffffffffffffffffff16815260200190815260200160002060008c815260200190815260200160002054610c4b9190613b57565b600260003373ffffffffffffffffffffffffffffffffffffffff1673ffffffffffffffffffffffffffffffffffffffff16815260200190815260200160002060008c815260200190815260200160002081905550848481548110610cd8577f4e487b7100000000000000000000000000000000000000000000000000000000600052603260045260246000fd5b90600052602060002090600702016005015481610cf59190613afd565b600260003373ffffffffffffffffffffffffffffffffffffffff1673ffffffffffffffffffffffffffffffffffffffff16815260200190815260200160002060007f4441490000000000000000000000000000000000000000000000000000000000815260200190815260200160002054610d709190613aa7565b600260003373ffffffffffffffffffffffffffffffffffffffff1673ffffffffffffffffffffffffffffffffffffffff16815260200190815260200160002060007f44414900000000000000000000000000000000000000000000000000000000008152602001908152602001600020819055508060026000878781548110610e22577f4e487b7100000000000000000000000000000000000000000000000000000000600052603260045260246000fd5b906000526020600020906007020160010160009054906101000a900473ffffffffffffffffffffffffffffffffffffffff1673ffffffffffffffffffffffffffffffffffffffff1673ffffffffffffffffffffffffffffffffffffffff16815260200190815260200160002060008c815260200190815260200160002054610eaa9190613aa7565b60026000878781548110610ee7577f4e487b7100000000000000000000000000000000000000000000000000000000600052603260045260246000fd5b906000526020600020906007020160010160009054906101000a900473ffffffffffffffffffffffffffffffffffffffff1673ffffffffffffffffffffffffffffffffffffffff1673ffffffffffffffffffffffffffffffffffffffff16815260200190815260200160002060008c815260200190815260200160002081905550848481548110610fa1577f4e487b7100000000000000000000000000000000000000000000000000000000600052603260045260246000fd5b90600052602060002090600702016005015481610fbe9190613afd565b60026000878781548110610ffb577f4e487b7100000000000000000000000000000000000000000000000000000000600052603260045260246000fd5b906000526020600020906007020160010160009054906101000a900473ffffffffffffffffffffffffffffffffffffffff1673ffffffffffffffffffffffffffffffffffffffff1673ffffffffffffffffffffffffffffffffffffffff16815260200190815260200160002060007f44414900000000000000000000000000000000000000000000000000000000008152602001908152602001600020546110a39190613b57565b600260008787815481106110e0577f4e487b7100000000000000000000000000000000000000000000000000000000600052603260045260246000fd5b906000526020600020906007020160010160009054906101000a900473ffffffffffffffffffffffffffffffffffffffff1673ffffffffffffffffffffffffffffffffffffffff1673ffffffffffffffffffffffffffffffffffffffff16815260200190815260200160002060007f44414900000000000000000000000000000000000000000000000000000000008152602001908152602001600020819055505b600060018111156111bc577f4e487b7100000000000000000000000000000000000000000000000000000000600052602160045260246000fd5b8860018111156111f5577f4e487b7100000000000000000000000000000000000000000000000000000000600052602160045260246000fd5b141561189657848481548110611234577f4e487b7100000000000000000000000000000000000000000000000000000000600052603260045260246000fd5b906000526020600020906007020160050154816112519190613afd565b600260003373ffffffffffffffffffffffffffffffffffffffff1673ffffffffffffffffffffffffffffffffffffffff16815260200190815260200160002060007f44414900000000000000000000000000000000000000000000000000000000008152602001908152602001600020541015611303576040517f08c379a00000000000000000000000000000000000000000000000000000000081526004016112fa906138d8565b60405180910390fd5b80600260003373ffffffffffffffffffffffffffffffffffffffff1673ffffffffffffffffffffffffffffffffffffffff16815260200190815260200160002060008c81526020019081526020016000205461135f9190613aa7565b600260003373ffffffffffffffffffffffffffffffffffffffff1673ffffffffffffffffffffffffffffffffffffffff16815260200190815260200160002060008c8152602001908152602001600020819055508484815481106113ec577f4e487b7100000000000000000000000000000000000000000000000000000000600052603260045260246000fd5b906000526020600020906007020160050154816114099190613afd565b600260003373ffffffffffffffffffffffffffffffffffffffff1673ffffffffffffffffffffffffffffffffffffffff16815260200190815260200160002060007f44414900000000000000000000000000000000000000000000000000000000008152602001908152602001600020546114849190613b57565b600260003373ffffffffffffffffffffffffffffffffffffffff1673ffffffffffffffffffffffffffffffffffffffff16815260200190815260200160002060007f44414900000000000000000000000000000000000000000000000000000000008152602001908152602001600020819055508060026000878781548110611536577f4e487b7100000000000000000000000000000000000000000000000000000000600052603260045260246000fd5b906000526020600020906007020160010160009054906101000a900473ffffffffffffffffffffffffffffffffffffffff1673ffffffffffffffffffffffffffffffffffffffff1673ffffffffffffffffffffffffffffffffffffffff16815260200190815260200160002060008c8152602001908152602001600020546115be9190613b57565b600260008787815481106115fb577f4e487b7100000000000000000000000000000000000000000000000000000000600052603260045260246000fd5b906000526020600020906007020160010160009054906101000a900473ffffffffffffffffffffffffffffffffffffffff1673ffffffffffffffffffffffffffffffffffffffff1673ffffffffffffffffffffffffffffffffffffffff16815260200190815260200160002060008c8152602001908152602001600020819055508484815481106116b5577f4e487b7100000000000000000000000000000000000000000000000000000000600052603260045260246000fd5b906000526020600020906007020160050154816116d29190613afd565b6002600087878154811061170f577f4e487b7100000000000000000000000000000000000000000000000000000000600052603260045260246000fd5b906000526020600020906007020160010160009054906101000a900473ffffffffffffffffffffffffffffffffffffffff1673ffffffffffffffffffffffffffffffffffffffff1673ffffffffffffffffffffffffffffffffffffffff16815260200190815260200160002060007f44414900000000000000000000000000000000000000000000000000000000008152602001908152602001600020546117b79190613aa7565b600260008787815481106117f4577f4e487b7100000000000000000000000000000000000000000000000000000000600052603260045260246000fd5b906000526020600020906007020160010160009054906101000a900473ffffffffffffffffffffffffffffffffffffffff1673ffffffffffffffffffffffffffffffffffffffff1673ffffffffffffffffffffffffffffffffffffffff16815260200190815260200160002060007f44414900000000000000000000000000000000000000000000000000000000008152602001908152602001600020819055505b600660008154809291906118a990613c2c565b919050555083806118b990613c2c565b9450505050610888565b600091505b82805490508210801561196e575082828154811061190f577f4e487b7100000000000000000000000000000000000000000000000000000000600052603260045260246000fd5b90600052602060002090600702016003015483838154811061195a577f4e487b7100000000000000000000000000000000000000000000000000000000600052603260045260246000fd5b906000526020600020906007020160040154145b15611c165760008290505b6001848054905061198a9190613b57565b811015611b47578360018261199f9190613aa7565b815481106119d6577f4e487b7100000000000000000000000000000000000000000000000000000000600052603260045260246000fd5b9060005260206000209060070201848281548110611a1d577f4e487b7100000000000000000000000000000000000000000000000000000000600052603260045260246000fd5b9060005260206000209060070201600082015481600001556001820160009054906101000a900473ffffffffffffffffffffffffffffffffffffffff168160010160006101000a81548173ffffffffffffffffffffffffffffffffffffffff021916908373ffffffffffffffffffffffffffffffffffffffff1602179055506001820160149054906101000a900460ff168160010160146101000a81548160ff02191690836001811115611afa577f4e487b7100000000000000000000000000000000000000000000000000000000600052602160045260246000fd5b021790555060028201548160020155600382015481600301556004820154816004015560058201548160050155600682015481600601559050508080611b3f90613c2c565b915050611979565b5082805480611b7f577f4e487b7100000000000000000000000000000000000000000000000000000000600052603160045260246000fd5b60019003818190600052602060002090600702016000808201600090556001820160006101000a81549073ffffffffffffffffffffffffffffffffffffffff02191690556001820160146101000a81549060ff021916905560028201600090556003820160009055600482016000905560058201600090556006820160009055505090558180611c0e90613c2c565b9250506118c8565b5050505050505050565b60065481565b60006020528060005260406000206000915090508060000154908060010160009054906101000a900473ffffffffffffffffffffffffffffffffffffffff16905082565b600460009054906101000a900473ffffffffffffffffffffffffffffffffffffffff1673ffffffffffffffffffffffffffffffffffffffff163373ffffffffffffffffffffffffffffffffffffffff1614611cfa576040517f08c379a0000000000000000000000000000000000000000000000000000000008152600401611cf190613838565b60405180910390fd5b60405180604001604052808381526020018273ffffffffffffffffffffffffffffffffffffffff168152506000808481526020019081526020016000206000820151816000015560208201518160010160006101000a81548173ffffffffffffffffffffffffffffffffffffffff021916908373ffffffffffffffffffffffffffffffffffffffff16021790555090505060018290806001815401808255809150506001900390600052602060002001600090919091909150555050565b60018181548110611dc857600080fd5b906000526020600020016000915090505481565b80600073ffffffffffffffffffffffffffffffffffffffff1660008083815260200190815260200160002060010160009054906101000a900473ffffffffffffffffffffffffffffffffffffffff1673ffffffffffffffffffffffffffffffffffffffff161415611e82576040517f08c379a0000000000000000000000000000000000000000000000000000000008152600401611e7990613918565b60405180910390fd5b82600260003373ffffffffffffffffffffffffffffffffffffffff1673ffffffffffffffffffffffffffffffffffffffff1681526020019081526020016000206000848152602001908152602001600020541015611f15576040517f08c379a0000000000000000000000000000000000000000000000000000000008152600401611f0c906138f8565b60405180910390fd5b82600260003373ffffffffffffffffffffffffffffffffffffffff1673ffffffffffffffffffffffffffffffffffffffff16815260200190815260200160002060008481526020019081526020016000206000828254611f759190613b57565b9250508190555060008083815260200190815260200160002060010160009054906101000a900473ffffffffffffffffffffffffffffffffffffffff1673ffffffffffffffffffffffffffffffffffffffff1663a9059cbb33856040518363ffffffff1660e01b8152600401611fec929190613787565b602060405180830381600087803b15801561200657600080fd5b505af115801561201a573d6000803e3d6000fd5b505050506040513d601f19601f8201168201806040525081019061203e91906130cf565b50505050565b6060600060018054905067ffffffffffffffff81111561208d577f4e487b7100000000000000000000000000000000000000000000000000000000600052604160045260246000fd5b6040519080825280602002602001820160405280156120c657816020015b6120b3612ff7565b8152602001906001900390816120ab5790505b50905060005b60018054905081101561222d57604051806040016040528060008060018581548110612121577f4e487b7100000000000000000000000000000000000000000000000000000000600052603260045260246000fd5b9060005260206000200154815260200190815260200160002060000154815260200160008060018581548110612180577f4e487b7100000000000000000000000000000000000000000000000000000000600052603260045260246000fd5b9060005260206000200154815260200190815260200160002060010160009054906101000a900473ffffffffffffffffffffffffffffffffffffffff1673ffffffffffffffffffffffffffffffffffffffff1681525082828151811061220f577f4e487b7100000000000000000000000000000000000000000000000000000000600052603260045260246000fd5b6020026020010181905250808061222590613c2c565b9150506120cc565b508091505090565b80600073ffffffffffffffffffffffffffffffffffffffff1660008083815260200190815260200160002060010160009054906101000a900473ffffffffffffffffffffffffffffffffffffffff1673ffffffffffffffffffffffffffffffffffffffff1614156122db576040517f08c379a00000000000000000000000000000000000000000000000000000000081526004016122d290613918565b60405180910390fd5b60008083815260200190815260200160002060010160009054906101000a900473ffffffffffffffffffffffffffffffffffffffff1673ffffffffffffffffffffffffffffffffffffffff166323b872dd3330866040518463ffffffff1660e01b815260040161234d93929190613750565b602060405180830381600087803b15801561236757600080fd5b505af115801561237b573d6000803e3d6000fd5b505050506040513d601f19601f8201168201806040525081019061239f91906130cf565b5082600260003373ffffffffffffffffffffffffffffffffffffffff1673ffffffffffffffffffffffffffffffffffffffff168152602001908152602001600020600084815260200190815260200160002060008282546124009190613aa7565b92505081905550505050565b83600073ffffffffffffffffffffffffffffffffffffffff1660008083815260200190815260200160002060010160009054906101000a900473ffffffffffffffffffffffffffffffffffffffff1673ffffffffffffffffffffffffffffffffffffffff1614156124b2576040517f08c379a00000000000000000000000000000000000000000000000000000000081526004016124a990613918565b60405180910390fd5b847f4441490000000000000000000000000000000000000000000000000000000000811415612516576040517f08c379a000000000000000000000000000000000000000000000000000000000815260040161250d90613878565b60405180910390fd5b60018081111561254f577f4e487b7100000000000000000000000000000000000000000000000000000000600052602160045260246000fd5b836001811115612588577f4e487b7100000000000000000000000000000000000000000000000000000000600052602160045260246000fd5b14156126265784600260003373ffffffffffffffffffffffffffffffffffffffff1673ffffffffffffffffffffffffffffffffffffffff1681526020019081526020016000206000888152602001908152602001600020541015612621576040517f08c379a000000000000000000000000000000000000000000000000000000000815260040161261890613898565b60405180910390fd5b6126e5565b83856126329190613afd565b600260003373ffffffffffffffffffffffffffffffffffffffff1673ffffffffffffffffffffffffffffffffffffffff16815260200190815260200160002060007f444149000000000000000000000000000000000000000000000000000000000081526020019081526020016000205410156126e4576040517f08c379a00000000000000000000000000000000000000000000000000000000081526004016126db90613858565b60405180910390fd5b5b6000600360008881526020019081526020016000206000856001811115612735577f4e487b7100000000000000000000000000000000000000000000000000000000600052602160045260246000fd5b815260200190815260200160002090508060405180610100016040528060055481526020013373ffffffffffffffffffffffffffffffffffffffff1681526020018660018111156127af577f4e487b7100000000000000000000000000000000000000000000000000000000600052602160045260246000fd5b8152602001898152602001888152602001600081526020018781526020014281525090806001815401808255809150506001900390600052602060002090600702016000909190919091506000820151816000015560208201518160010160006101000a81548173ffffffffffffffffffffffffffffffffffffffff021916908373ffffffffffffffffffffffffffffffffffffffff16021790555060408201518160010160146101000a81548160ff0219169083600181111561289c577f4e487b7100000000000000000000000000000000000000000000000000000000600052602160045260246000fd5b0217905550606082015181600201556080820151816003015560a0820151816004015560c0820151816005015560e0820151816006015550506000808280549050116128e95760006128fb565b600182805490506128fa9190613b57565b5b90505b6000811115612faf5760006001811115612941577f4e487b7100000000000000000000000000000000000000000000000000000000600052602160045260246000fd5b85600181111561297a577f4e487b7100000000000000000000000000000000000000000000000000000000600052602160045260246000fd5b148015612a2657508181815481106129bb577f4e487b7100000000000000000000000000000000000000000000000000000000600052603260045260246000fd5b906000526020600020906007020160050154826001836129db9190613b57565b81548110612a12577f4e487b7100000000000000000000000000000000000000000000000000000000600052603260045260246000fd5b906000526020600020906007020160050154115b15612a3057612faf565b600180811115612a69577f4e487b7100000000000000000000000000000000000000000000000000000000600052602160045260246000fd5b856001811115612aa2577f4e487b7100000000000000000000000000000000000000000000000000000000600052602160045260246000fd5b148015612b4e5750818181548110612ae3577f4e487b7100000000000000000000000000000000000000000000000000000000600052603260045260246000fd5b90600052602060002090600702016005015482600183612b039190613b57565b81548110612b3a577f4e487b7100000000000000000000000000000000000000000000000000000000600052603260045260246000fd5b906000526020600020906007020160050154105b15612b5857612faf565b600082600183612b689190613b57565b81548110612b9f577f4e487b7100000000000000000000000000000000000000000000000000000000600052603260045260246000fd5b906000526020600020906007020160405180610100016040529081600082015481526020016001820160009054906101000a900473ffffffffffffffffffffffffffffffffffffffff1673ffffffffffffffffffffffffffffffffffffffff1673ffffffffffffffffffffffffffffffffffffffff1681526020016001820160149054906101000a900460ff166001811115612c64577f4e487b7100000000000000000000000000000000000000000000000000000000600052602160045260246000fd5b6001811115612c9c577f4e487b7100000000000000000000000000000000000000000000000000000000600052602160045260246000fd5b8152602001600282015481526020016003820154815260200160048201548152602001600582015481526020016006820154815250509050828281548110612d0d577f4e487b7100000000000000000000000000000000000000000000000000000000600052603260045260246000fd5b906000526020600020906007020183600184612d299190613b57565b81548110612d60577f4e487b7100000000000000000000000000000000000000000000000000000000600052603260045260246000fd5b9060005260206000209060070201600082015481600001556001820160009054906101000a900473ffffffffffffffffffffffffffffffffffffffff168160010160006101000a81548173ffffffffffffffffffffffffffffffffffffffff021916908373ffffffffffffffffffffffffffffffffffffffff1602179055506001820160149054906101000a900460ff168160010160146101000a81548160ff02191690836001811115612e3d577f4e487b7100000000000000000000000000000000000000000000000000000000600052602160045260246000fd5b0217905550600282015481600201556003820154816003015560048201548160040155600582015481600501556006820154816006015590505080838381548110612eb1577f4e487b7100000000000000000000000000000000000000000000000000000000600052603260045260246000fd5b90600052602060002090600702016000820151816000015560208201518160010160006101000a81548173ffffffffffffffffffffffffffffffffffffffff021916908373ffffffffffffffffffffffffffffffffffffffff16021790555060408201518160010160146101000a81548160ff02191690836001811115612f61577f4e487b7100000000000000000000000000000000000000000000000000000000600052602160045260246000fd5b0217905550606082015181600201556080820151816003015560a0820151816004015560c0820151816005015560e082015181600601559050508180612fa690613c02565b925050506128fe565b60056000815480929190612fc290613c2c565b91905055505050505050505050565b600460009054906101000a900473ffffffffffffffffffffffffffffffffffffffff1681565b604051806040016040528060008019168152602001600073ffffffffffffffffffffffffffffffffffffffff1681525090565b60008135905061303981613ce7565b92915050565b60008151905061304e81613cfe565b92915050565b60008135905061306381613d15565b92915050565b60008135905061307881613d2c565b92915050565b60008135905061308d81613d3c565b92915050565b600080604083850312156130a657600080fd5b60006130b48582860161302a565b92505060206130c585828601613054565b9150509250929050565b6000602082840312156130e157600080fd5b60006130ef8482850161303f565b91505092915050565b60006020828403121561310a57600080fd5b600061311884828501613054565b91505092915050565b6000806040838503121561313457600080fd5b600061314285828601613054565b92505060206131538582860161302a565b9150509250929050565b6000806040838503121561317057600080fd5b600061317e85828601613054565b925050602061318f85828601613069565b9150509250929050565b6000806000606084860312156131ae57600080fd5b60006131bc86828701613054565b93505060206131cd8682870161307e565b92505060406131de86828701613069565b9150509250925092565b6000806000606084860312156131fd57600080fd5b600061320b86828701613054565b935050602061321c8682870161307e565b925050604061322d8682870161307e565b9150509250925092565b6000806000806080858703121561324d57600080fd5b600061325b87828801613054565b945050602061326c8782880161307e565b935050604061327d8782880161307e565b925050606061328e87828801613069565b91505092959194509250565b6000602082840312156132ac57600080fd5b60006132ba8482850161307e565b91505092915050565b600080604083850312156132d657600080fd5b60006132e48582860161307e565b92505060206132f585828601613054565b9150509250929050565b600061330b8383613646565b6101008301905092915050565b600061332483836136e8565b60408301905092915050565b61333981613b8b565b82525050565b61334881613b8b565b82525050565b600061335982613a44565b6133638185613a74565b935061336e83613a24565b8060005b8381101561339f57815161338688826132ff565b975061339183613a5a565b925050600181019050613372565b5085935050505092915050565b60006133b782613a4f565b6133c18185613a85565b93506133cc83613a34565b8060005b838110156133fd5781516133e48882613318565b97506133ef83613a67565b9250506001810190506133d0565b5085935050505092915050565b61341381613ba9565b82525050565b61342281613ba9565b82525050565b61343181613bf0565b82525050565b61344081613bf0565b82525050565b6000613453600a83613a96565b91507f6f6e6c792061646d696e000000000000000000000000000000000000000000006000830152602082019050919050565b6000613493601a83613a96565b91507f746865206461692062616c616e636520697320746f6f206c6f770000000000006000830152602082019050919050565b60006134d3601083613a96565b91507f63616e6e6f7420747261646520444149000000000000000000000000000000006000830152602082019050919050565b6000613513601c83613a96565b91507f74686520746f6b656e2062616c616e636520697320746f6f206c6f77000000006000830152602082019050919050565b6000613553601583613a96565b91507f746f6b656e2062616c616e636520746f6f206c6f7700000000000000000000006000830152602082019050919050565b6000613593601d83613a96565b91507f5468652062616c616e6365206f662044414920697320746f6f206c6f770000006000830152602082019050919050565b60006135d3601683613a96565b91507f7468652062616c616e636520697320746f6f206c6f77000000000000000000006000830152602082019050919050565b6000613613601983613a96565b91507f7468697320746f6b656e20646f6573206e6f74206578697374000000000000006000830152602082019050919050565b6101008201600082015161365d6000850182613717565b5060208201516136706020850182613330565b5060408201516136836040850182613428565b506060820151613696606085018261340a565b5060808201516136a96080850182613717565b5060a08201516136bc60a0850182613717565b5060c08201516136cf60c0850182613717565b5060e08201516136e260e0850182613717565b50505050565b6040820160008201516136fe600085018261340a565b5060208201516137116020850182613330565b50505050565b61372081613be6565b82525050565b61372f81613be6565b82525050565b600060208201905061374a600083018461333f565b92915050565b6000606082019050613765600083018661333f565b613772602083018561333f565b61377f6040830184613726565b949350505050565b600060408201905061379c600083018561333f565b6137a96020830184613726565b9392505050565b600060208201905081810360008301526137ca818461334e565b905092915050565b600060208201905081810360008301526137ec81846133ac565b905092915050565b60006020820190506138096000830184613419565b92915050565b60006040820190506138246000830185613419565b613831602083018461333f565b9392505050565b6000602082019050818103600083015261385181613446565b9050919050565b6000602082019050818103600083015261387181613486565b9050919050565b60006020820190508181036000830152613891816134c6565b9050919050565b600060208201905081810360008301526138b181613506565b9050919050565b600060208201905081810360008301526138d181613546565b9050919050565b600060208201905081810360008301526138f181613586565b9050919050565b60006020820190508181036000830152613911816135c6565b9050919050565b6000602082019050818103600083015261393181613606565b9050919050565b600060208201905061394d6000830184613726565b92915050565b600061010082019050613969600083018b613726565b613976602083018a61333f565b6139836040830189613437565b6139906060830188613419565b61399d6080830187613726565b6139aa60a0830186613726565b6139b760c0830185613726565b6139c460e0830184613726565b9998505050505050505050565b600060a0820190506139e66000830188613726565b6139f36020830187613726565b613a006040830186613726565b613a0d6060830185613726565b613a1a6080830184613726565b9695505050505050565b6000819050602082019050919050565b6000819050602082019050919050565b600081519050919050565b600081519050919050565b6000602082019050919050565b6000602082019050919050565b600082825260208201905092915050565b600082825260208201905092915050565b600082825260208201905092915050565b6000613ab282613be6565b9150613abd83613be6565b9250827fffffffffffffffffffffffffffffffffffffffffffffffffffffffffffffffff03821115613af257613af1613c75565b5b828201905092915050565b6000613b0882613be6565b9150613b1383613be6565b9250817fffffffffffffffffffffffffffffffffffffffffffffffffffffffffffffffff0483118215151615613b4c57613b4b613c75565b5b828202905092915050565b6000613b6282613be6565b9150613b6d83613be6565b925082821015613b8057613b7f613c75565b5b828203905092915050565b6000613b9682613bc6565b9050919050565b60008115159050919050565b6000819050919050565b6000819050613bc182613cd3565b919050565b600073ffffffffffffffffffffffffffffffffffffffff82169050919050565b6000819050919050565b6000613bfb82613bb3565b9050919050565b6000613c0d82613be6565b91506000821415613c2157613c20613c75565b5b600182039050919050565b6000613c3782613be6565b91507fffffffffffffffffffffffffffffffffffffffffffffffffffffffffffffffff821415613c6a57613c69613c75565b5b600182019050919050565b7f4e487b7100000000000000000000000000000000000000000000000000000000600052601160045260246000fd5b7f4e487b7100000000000000000000000000000000000000000000000000000000600052602160045260246000fd5b60028110613ce457613ce3613ca4565b5b50565b613cf081613b8b565b8114613cfb57600080fd5b50565b613d0781613b9d565b8114613d1257600080fd5b50565b613d1e81613ba9565b8114613d2957600080fd5b50565b60028110613d3957600080fd5b50565b613d4581613be6565b8114613d5057600080fd5b5056fea2646970667358221220a436c53572ef9d0a213941a1a74cdf494050425fe7bf6f087b0e1ad7fba2e36064736f6c63430008000033",
  "immutableReferences": {},
  "source": "pragma solidity 0.8.0;\n\nimport \"@openzeppelin/contracts/token/ERC20/IERC20.sol\";\n\ncontract Dex {\n    enum Side {\n        BUY,\n        SELL\n    }\n\n    struct Token {\n        bytes32 ticker;\n        address tokenAddress;\n    }\n\n    struct Order {\n        uint256 id;\n        address trader;\n        Side side;\n        bytes32 ticker;\n        uint256 amount;\n        uint256 filled;\n        uint256 price;\n        uint256 date;\n    }\n\n    mapping(bytes32 => Token) public tokens;\n    bytes32[] public tokenList;\n    mapping(address => mapping(bytes32 => uint256)) public traderBalances;\n    mapping(bytes32 => mapping(uint256 => Order[])) public orderBook;\n    address public admin;\n    uint256 public nextOrderId;\n    uint256 public nextTradeId;\n    bytes32 constant DAI = bytes32(\"DAI\");\n\n    event NewTrade(\n        uint256 tradeId,\n        uint256 orderId,\n        bytes32 indexed ticker,\n        address indexed trader1,\n        address indexed trader2,\n        uint256 amount,\n        uint256 price,\n        uint256 date\n    );\n\n    constructor() {\n        admin = msg.sender;\n    }\n\n    // The list of the orders of the orderbook\n    function getOrders(bytes32 ticker, Side side)\n        external\n        view\n        returns (Order[] memory)\n    {\n        return orderBook[ticker][uint256(side)];\n    }\n\n    // The list of the tokens that can be traded\n    function getTokens() external view returns (Token[] memory) {\n        Token[] memory _tokens = new Token[](tokenList.length);\n        for (uint256 i = 0; i < tokenList.length; i++) {\n            _tokens[i] = Token(\n                tokens[tokenList[i]].ticker,\n                tokens[tokenList[i]].tokenAddress\n            );\n        }\n        return _tokens;\n    }\n\n    function addToken(bytes32 ticker, address tokenAddress) external onlyAdmin {\n        tokens[ticker] = Token(ticker, tokenAddress);\n        tokenList.push(ticker);\n    }\n\n    function deposit(uint256 amount, bytes32 ticker)\n        external\n        tokenExist(ticker)\n    {\n        IERC20(tokens[ticker].tokenAddress).transferFrom(\n            msg.sender,\n            address(this),\n            amount\n        );\n        traderBalances[msg.sender][ticker] += amount;\n    }\n\n    function withdraw(uint256 amount, bytes32 ticker)\n        external\n        tokenExist(ticker)\n    {\n        require(\n            traderBalances[msg.sender][ticker] >= amount,\n            \"the balance is too low\"\n        );\n        traderBalances[msg.sender][ticker] -= amount;\n        IERC20(tokens[ticker].tokenAddress).transfer(msg.sender, amount);\n    }\n\n    function createLimitOrder(\n        bytes32 ticker,\n        uint256 amount,\n        uint256 price,\n        Side side\n    ) external tokenExist(ticker) tokenIsNotDai(ticker) {\n        if (side == Side.SELL) {\n            require(\n                traderBalances[msg.sender][ticker] >= amount,\n                \"the token balance is too low\"\n            );\n        } else {\n            require(\n                traderBalances[msg.sender][DAI] >= amount * price,\n                \"the dai balance is too low\"\n            );\n        }\n        Order[] storage orders = orderBook[ticker][uint256(side)];\n        orders.push(\n            Order(\n                nextOrderId,\n                msg.sender,\n                side,\n                ticker,\n                amount,\n                0,\n                price,\n                block.timestamp\n            )\n        );\n\n        uint256 i = orders.length > 0 ? orders.length - 1 : 0;\n        while (i > 0) {\n            if (side == Side.BUY && orders[i - 1].price > orders[i].price) {\n                break;\n            }\n            if (side == Side.SELL && orders[i - 1].price < orders[i].price) {\n                break;\n            }\n            Order memory order = orders[i - 1];\n            orders[i - 1] = orders[i];\n            orders[i] = order;\n            i--;\n        }\n        nextOrderId++;\n    }\n\n    function createMarketOrder(\n        bytes32 ticker,\n        uint256 amount,\n        Side side\n    ) external tokenExist(ticker) tokenIsNotDai(ticker) {\n        if (side == Side.SELL) {\n            require(\n                traderBalances[msg.sender][ticker] >= amount,\n                \"token balance too low\"\n            );\n        }\n        Order[] storage orders = orderBook[ticker][\n            uint256(side == Side.BUY ? Side.SELL : Side.BUY)\n        ];\n        uint256 i;\n        uint256 remaining = amount;\n\n        while (i < orders.length && remaining > 0) {\n            uint256 available = orders[i].amount - orders[i].filled;\n            uint256 matched = (remaining > available) ? available : remaining;\n            remaining = remaining - matched;\n            orders[i].filled = orders[i].filled + matched;\n            emit NewTrade(\n                nextTradeId,\n                orders[i].id,\n                ticker,\n                orders[i].trader,\n                msg.sender,\n                matched,\n                orders[i].price,\n                block.timestamp\n            );\n            if (side == Side.SELL) {\n                traderBalances[msg.sender][ticker] =\n                    traderBalances[msg.sender][ticker] -\n                    matched;\n                traderBalances[msg.sender][DAI] =\n                    traderBalances[msg.sender][DAI] +\n                    (matched * orders[i].price);\n                traderBalances[orders[i].trader][ticker] =\n                    traderBalances[orders[i].trader][ticker] +\n                    matched;\n                traderBalances[orders[i].trader][DAI] =\n                    traderBalances[orders[i].trader][DAI] -\n                    (matched * orders[i].price);\n            }\n            if (side == Side.BUY) {\n                require(\n                    traderBalances[msg.sender][DAI] >=\n                        matched * orders[i].price,\n                    \"The balance of DAI is too low\"\n                );\n                traderBalances[msg.sender][ticker] =\n                    traderBalances[msg.sender][ticker] +\n                    matched;\n                traderBalances[msg.sender][DAI] =\n                    traderBalances[msg.sender][DAI] -\n                    (matched * orders[i].price);\n                traderBalances[orders[i].trader][ticker] =\n                    traderBalances[orders[i].trader][ticker] -\n                    matched;\n                traderBalances[orders[i].trader][DAI] =\n                    traderBalances[orders[i].trader][DAI] +\n                    (matched * orders[i].price);\n            }\n            nextTradeId++;\n            i++;\n        }\n\n        i = 0;\n        while (i < orders.length && orders[i].filled == orders[i].amount) {\n            for (uint256 j = i; j < orders.length - 1; j++) {\n                orders[j] = orders[j + 1];\n            }\n            orders.pop();\n            i++;\n        }\n    }\n\n    modifier tokenIsNotDai(bytes32 ticker) {\n        require(ticker != DAI, \"cannot trade DAI\");\n        _;\n    }\n\n    modifier tokenExist(bytes32 ticker) {\n        require(\n            tokens[ticker].tokenAddress != address(0),\n            \"this token does not exist\"\n        );\n        _;\n    }\n\n    modifier onlyAdmin() {\n        require(msg.sender == admin, \"only admin\");\n        _;\n    }\n}\n",
  "sourcePath": "/Users/liaoyichun/blockchain/dex/contracts/Dex.sol",
  "compiler": {
    "name": "solc",
    "version": "0.8.0+commit.c7dfd78e.Emscripten.clang"
  },
  "schemaVersion": "3.3.3",
  "updatedAt": "2021-10-06T14:08:35.167Z",
  "networkType": "ethereum",
  "devdoc": {
    "kind": "dev",
    "methods": {},
    "version": 1
  },
  "userdoc": {
    "kind": "user",
    "methods": {},
    "version": 1
  }
}